S014000045696E646F706472616368742E737265633B
S113000045C0000060C000005EC000005CC000008D
S11300105AC0000058C0000056C0000054C0000080
S113002052C0000004C400004EC000004CC00000D8
S11300304AC0000048C0000046C0000044C00000A0
S113004042C0000040C000003EC000003CC00000B0
S11300503AC0000038C0000036C0000034C00000C0
S113006032C0000030C000002EC000002CC00000D0
S11300702AC0000028C0000026C0000024C00000E0
S113008022C0000020C000001EC0000011241FBEBA
S1130090CFEFD0E1DEBFCDBF11E0A0E0B1E0ECE5F1
S11300A0FDE000E00BBF02C007900D92AE30B10737
S11300B0D9F721E0AEE0B1E001C01D92A333B2074D
S11300C0E1F71CD449C69CCFFC010FB6F8946091AB
S11300D02F017091300180913101909132010FBE56
S11300E0309721F0608371838283938308958FE036
S11300F08ABB89B3817851F080911401813059F120
S11301001092140189B3827851F50BC089B38278B7
S113011041F080911401882311F181E0809314014E
S11301201EC089B3847849F0809114018330D9F0DA
S113013082E08093140189B30AC089B3887839F0C6
S113014080911401823019F083E08093140180912E
S1130150140190E0089589B38278F9F608C089B350
S1130160847831F7EACF89B3887871F7F0CF89B30F
S11301708478F1F6E2CFEFE1F1E0108286E6818344
S1130180828313829CE39483858383EC8683178222
S11301900895E82FF0E0E15EFE4F81E090E002C0B8
S11301A0880F991F6A95E2F79081892B80830895BF
S11301B0E82FF0E0E15EFE4F81E090E002C0880F9E
S11301C0991F6A95E2F79081892780830895109298
S11301D0710080E280937000089584EA8093740033
S11301E0E4E7F0E080818823ECF7089580937300BE
S11301F084E880937400E4E7F0E080818823ECF7DE
S113020008950F931F93CF93DF93C82FE6DF8C2FAE
S1130210EDDF81E2EBDF04E710E0D4E9F801D083FD
S1130220DCDF8C2FE3DF80EAE1DFF801D083D5DF68
S11302308C2FDCDF81EEDADFF801D083CEDF8C2F68
S1130240D5DF81E8D3DFF801D083C7DF8C2FCEDF81
S113025080E0CCDFD8E0C5E5C0958C2F80FB879586
S113026087F9C4DF80E0C2DFD150B1F784E980931D
S11302707400DF91CF911F910F910895A8DF84EE50
S1130280C0DF10921E0110921D0185E191E01CDF78
S1130290CB01FAD4F6D4F5D4F4C408950F931F9384
S11302A0CF93DF939ADF84EEA1DF80E09FDFC7E284
S11302B0D1E00FE111E08A9180FB879587F996DF01
S11302C080E094DFC017D107B1F784E9809374000C
S11302D0DF91CF911F910F910895CF93DF93C82F92
S11302E0D62FE7E2F1E0808391836283738388E011
S11302F090E05FD3FC0190931E0180931D018091D7
S1130300270190912801A0912901B0912A018083AD
S11303109183A283B38320910E0130910F01358321
S11303202483178216822F5F3F4F30930F0120934F
S11303300E016D2F8C2F2DDFB1DFDF91CF9108954A
S1130340E0911D01F0911E01309749F080E090E0AA
S113035001960680F781E02D3097D1F7089580E06B
S113036090E0089580910A0190910B010196909379
S11303700B0180930A010895CF93DF9382D481D433
S113038080D47FD47ED47DD47CD487709078992314
S113039024F40197886F9F6F0196EC0172D48770E3
S11303A09078992324F40197886F9F6F0196BC017C
S11303B0E0911D01F0911E01309759F120813181A6
S11303C02C173D0709F58281938186179707D9F485
S11303D058D457D456D487709078992324F401972D
S11303E0886F9F6F0196EC014CD4877090789923A5
S11303F024F40197886F9F6F0196BC01E0911D0161
S1130400F0911E0101C0E9010680F781E02D3097CB
S1130410A9F6E9E1F1E0D183C083738362838C2F71
S1130420B8DE3CDFDF91CF910895E0911D01F0919A
S11304301E01309791F0208131812817390729F462
S1130440228133812617370759F00680F781E02D82
S1130450309789F780E090E0089580E090E0089577
S113046081E090E008956F927F928F929F92AF9275
S1130470BF92CF92DF92EF92FF920F931F93CF938D
S1130480DF936C015B018091190190911A018C1525
S11304909D0551F480911B0190911C0186179707CB
S11304A019F460DF69DFADD1B501C601BEDF892B68
S11304B009F092C0B1D144DF20910A0130910B01BF
S11304C0821793075CF56A2D8C2D63DEC0911D01A4
S11304D0D0911E0101C0EC018E819F810097D9F754
S11304E088E090E066D2FC01D182C082B382A2820D
S11304F080910E0190910F01958384831782168257
S1130500FF83EE83019690930F0180930E01E7E23F
S1130510F1E0D182C082B382A2826BC06A2D8C2D9D
S113052038DEE0901D01F0901E01F70144815581F1
S1130530E114F10449F45DC02C813D812417350791
S113054044F44C01A90105C0E70180E090E0812C4E
S1130550912C01960E80DF81C02D209769F73EC053
S11305608816990681F502C087017E01F80162812F
S113057080811EDEF301D182C082B382A282809187
S11305800E0190910F0195838483F80126813781B0
S1130590F30137832683019690930F0180930E0114
S11305A0C8019FD2892829F470921E0160921D010E
S11305B003C0F70177826682E7E2F1E0D182C0826C
S11305C0B382A28216C07801F701068117810196D1
S11305D00115110529F60DC0CEDD0BC088E090E0B1
S11305E0E8D13C018114910409F4BECF80E090E08D
S11305F0EBCFDF91CF911F910F91FF90EF90DF90A0
S1130600CF90BF90AF909F908F907F906F90089500
S1130610E7E2F1E08081918162817381019710F4B6
S113062087E090E020DF3ACE0895E7E2F1E08081B0
S113063091816281738101968830910511F480E083
S113064090E011DF2BCE0895E7E2F1E08081918103
S1130650628173816F5F7F4F6830710511F460E0D0
S113066070E001DF1BCE0895E7E2F1E08081918123
S1130670628173816150710910F467E070E0F3DE08
S11306800DCE08958FEF87BBBB98C09A82E58DB9D4
S113069008958FB9779BFECF089598B321E030E099
S11306A002C0220F331F8A95E2F72095292328BB25
S11306B0089598B321E030E002C0220F331F8A95D9
S11306C0E2F7292B28BB089580E0E7DF89E0E1DF2A
S11306D08FEFDFDF80E0EDDF80E0DFDF8AE0D9DF6E
S11306E08FE0D7DF80E0E5DF80E0D7DF8BE0D1DF8C
S11306F083E0CFDF80E0DDDF80E0CFDF8CE0C9DFA7
S113070081E0C7DF80E0D5CF0895CF93DF93D82F62
S1130710C62F80E0C2DF8D2FBCDF8C2FBADF80E0D4
S1130720C8DFDF91CF910895CF93C1E060E08C2FB3
S1130730ECDFCF5FC530D1F7CF9108950F931F93AE
S1130740CF93DF93082F192FEFDFC02FD12FC031A4
S113075087E2D80714F0CFE0D7E2DD2354F5C9319E
S11307608CEFD80714F4C9E1DCEF8E01DD2324F407
S1130770002711270C1B1D0B6AE084E0C6DFC801AB
S113078064E670E0EFD0CB01CAE0D0E0BE01EAD06D
S1130790682F83E0BADFC801BE01E4D0182FCB0173
S11307A0BE01E0D0682F82E0B0DF612F81E0ADDFD1
S11307B023C0CE0168EE73E0D5D0CB010AE010E08F
S11307C0B801D0D0682F84E0A0DFCE0164E670E0E9
S11307D0C9D0CB01B801C6D0682F83E096DFCE0123
S11307E0B801C0D0C82FCB01B801BCD0682F82E0BB
S11307F08CDF6C2F81E089DFDF91CF911F910F9106
S113080008958091100190911101449690931101E3
S11308108093100193CF089580911001909111015C
S11308200296909311018093100188CF08951F922E
S11308300F920FB60F9211240BB60F922F933F9382
S11308404F935F936F937F938F939F93AF93BF93D4
S1130850EF93FF9380910C0190910D01892B59F036
S113086046DC90911401891731F010920D01109219
S11308700C01809314018091120190911301883E20
S11308809340D9F410921301109212018091140133
S1130890813041F028F0823039F0833039F007C0DC
S11308A0B7DE05C0C2DE03C0CFDE01C0DDDE81E0FD
S11308B090E090930D0180930C018091120190912E
S11308C0130101969093130180931201FF91EF910C
S11308D0BF91AF919F918F917F916F915F914F9154
S11308E03F912F910F900BBE0F900FBE0F901F9052
S11308F01895FDDB0497E9F33FCD089581E087BBAC
S1130900C1DEE2DE84E080931401B8DC84EF91E080
S113091018D08FE08ABB64E070E084E090E0DDDC16
S113092088EE93E00ED087E083BD88E085BD87B76D
S1130930846887BF85B5856085BD14BC7894D9DF8C
S1130940FFCF181619066CF420E030E0EFECF7E066
S11309503197F1F700C000002F5F3F4F82179307D4
S1130960A9F7089597FB072E16F4009406D077FD97
S113097008D00BD007FC05D03EF4909581959F4F8D
S11309800895709561957F4F0895AA1BBB1B51E193
S113099007C0AA1FBB1FA617B70710F0A61BB70BEB
S11309A0881F991F5A95A9F780959095BC01CD0190
S11309B008950F931F93CF93DF938230910510F422
S11309C082E090E0E0912D01F0912E0120E030E0F2
S11309D0A0E0B0E0309719F1408151810281138188
S11309E048175907C8F08417950769F4109731F030
S11309F012960C93129713961C9327C000932D0103
S1130A0010932E0122C02115310519F04217530706
S1130A1018F49A01BD01EF01DF01F801DBCF2115C4
S1130A203105F9F0281B390B2430310580F48A8113
S1130A309B816115710521F0FB019383828304C0BE
S1130A4090932E0180932D01FE01329644C0FE0145
S1130A50E20FF31F81939193225031093983288344
S1130A603AC020912B0130912C01232B41F4209189
S1130A7002013091030130932C0120932B0120912A
S1130A800001309101012115310541F42DB73EB724
S1130A904091040150910501241B350BE0912B0179
S1130AA0F0912C01E217F307A0F42E1B3F0B28173B
S1130AB0390778F0AC014E5F5F4F2417350748F0D3
S1130AC04E0F5F1F50932C0140932B018193919300
S1130AD002C0E0E0F0E0CF01DF91CF911F910F91D0
S1130AE00895CF93DF93009709F481C0FC013297F6
S1130AF013821282A0912D01B0912E01109781F4DE
S1130B0020813181820F931F20912B0130912C0180
S1130B102817390751F5F0932C01E0932B0167C096
S1130B20ED0120E030E0CE17DF0740F44A815B811D
S1130B309E0141155105F1F0EA01F5CFD383C2833B
S1130B4040815181840F951FC817D90759F48881B2
S1130B509981840F951F0296918380838A819B815A
S1130B60938382832115310529F4F0932E01E093B8
S1130B702D013DC0E901FB83EA8349915991C40FDA
S1130B80D51FEC17FD0761F480819181840F951FB7
S1130B900296E90199838883828193819B838A8366
S1130BA0E0E0F0E012968D919C911397009719F074
S1130BB0FD01DC01F7CF8D919C9111979D012E5F72
S1130BC03F4F820F931F20912B0130912C01281746
S1130BD0390769F4309729F410922E0110922D01EF
S1130BE002C013821282B0932C01A0932B01DF91D7
S1130BF0CF9108958F929F92AF92BF92CF92DF923E
S1130C00EF92FF92CF93DF93EC01688179818A811F
S1130C109B81611571058105910521F464E279EDEB
S1130C208BE597E02DE133EF41E050E038D0490106
S1130C305A019B01AC01A7EAB1E44DD06B017C01E0
S1130C40ACEEB4EFA501940152D0DC01CB018C0DC4
S1130C509D1DAE1DBF1DB7FF03C00197A109B0487C
S1130C6088839983AA83BB839F77DF91CF91FF9079
S1130C70EF90DF90CF90BF90AF909F908F900895AA
S1130C80B9CF86E091E0B6CFA0E0B0E08093060152
S1130C9090930701A0930801B09309010895052ECC
S1130CA097FB16F400940FD057FD05D024D007FC11
S1130CB002D046F408C050954095309521953F4F99
S1130CC04F4F5F4F089590958095709561957F4F34
S1130CD08F4F9F4F089531D0A59F900DB49F900DD5
S1130CE0A49F800D911D11240895B7FFF4CFF3DF65
S1130CF0821B930B0895A1E21A2EAA1BBB1BFD01B4
S1130D000DC0AA1FBB1FEE1FFF1FA217B307E407E6
S1130D10F50720F0A21BB30BE40BF50B661F771F3E
S1130D20881F991F1A9469F760957095809590951E
S1130D309B01AC01BD01CF010895A29FB001B39FF7
S1130D40C001A39F700D811D1124911DB29F700DD0
S10F0D50811D1124911D0895F894FFCF1B
S1110D5C00003301200001000000040001002B
S9030000FC
