S014000045696E646F706472616368742E737265633B
S113000045C0000060C000005EC000005CC000008D
S11300105AC0000058C0000056C0000054C0000080
S113002052C0000050C000004EC000004CC0000090
S11300304AC0000048C0000046C0000044C00000A0
S113004042C0000040C000003EC000003CC00000B0
S11300503AC0000038C0000036C0000034C00000C0
S113006032C0000030C000002EC000002CC00000D0
S11300702AC0000028C0000026C0000024C00000E0
S113008022C0000020C000001EC0000011241FBEBA
S1130090CFEFD0E1DEBFCDBF11E0A0E0B1E0E0EBF7
S11300A0FBE000E00BBF02C007900D92AC30B1073B
S11300B0D9F721E0ACE0B1E001C01D92AE32B20745
S11300C0E1F74BD373C59CCFFC010FB6F894609154
S11300D02A0170912B0180912C0190912D010FBE6A
S11300E0309721F060837183828393830895EAE1DA
S11300F0F1E0108286E68183828313829CE39483F9
S1130100858383EC868317820895E82FF0E0E65E0A
S1130110FE4F81E090E002C0880F991F6A95E2F7D4
S11301209081892B80830895E82FF0E0E65EFE4FEE
S113013081E090E002C0880F991F6A95E2F79081F0
S11301408927808308951092710080E28093700063
S1130150089584EA80937400E4E7F0E080818823C2
S1130160ECF708958093730084E880937400E4E7C7
S1130170F0E080818823ECF708950F931F93CF93C9
S1130180DF93C82FE6DF8C2FEDDF81E2EBDF04E79E
S113019010E0D4E9F801D083DCDF8C2FE3DF80EAC0
S11301A0E1DFF801D083D5DF8C2FDCDF81EEDADFED
S11301B0F801D083CEDF8C2FD5DF81E8D3DFF801BF
S11301C0D083C7DF8C2FCEDF80E0CCDFD8E0C5E55D
S11301D0C0958C2F80FB879587F9C4DF80E0C2DF50
S11301E0D150B1F784E980937400DF91CF911F91CE
S11301F00F910895A8DF84EEC0DF109219011092C8
S1130200180180E191E060DFCB0168D464D463D449
S113021062C408950F931F93CF93DF939ADF84EE04
S1130220A1DF80E09FDFC2E2D1E00AE111E08A9120
S113023080FB879587F996DF80E094DFC017D107AC
S1130240B1F784E980937400DF91CF911F910F91EE
S11302500895CF93DF93C82FD62FE2E2F1E0808395
S113026091836283738388E090E0CDD2FC01909304
S11302701901809318018091220190912301A0918A
S11302802401B091250180839183A283B3832091BB
S11302900C0130910D0135832483178216822F5F60
S11302A03F4F30930D0120930C016D2F8C2F2DDFC8
S11302B0B1DFDF91CF910895E0911801F091190118
S11302C0309749F080E090E001960680F781E02DB8
S11302D03097D1F7089580E090E0089580910A0165
S11302E090910B01019690930B0180930A0108955C
S11302F0CF93DF93F0D3EFD3EED3EDD3ECD3EBD3A3
S1130300EAD387709078992324F40197886F9F6FBC
S11303100196EC01E0D387709078992324F4019737
S1130320886F9F6F0196BC01E0911801F09119014B
S1130330309759F1208131812C173D0709F58281CD
S1130340938186179707D9F4C6D3C5D3C4D38770CE
S11303509078992324F40197886F9F6F0196EC019C
S1130360BAD387709078992324F40197886F9F6F8C
S11303700196BC01E0911801F091190101C0E90155
S11303800680F781E02D3097A9F6E4E1F1E0D1830E
S1130390C083738362838C2FB8DE3CDFDF91CF91FF
S11303A00895E0911801F0911901309791F020819E
S11303B031812817390729F4228133812617370719
S11303C059F00680F781E02D309789F780E090E0BE
S11303D0089580E090E0089581E090E008958F9280
S11303E09F92AF92BF92CF92DF92EF92FF920F93C0
S11303F01F93CF93DF938C017B0180911401909123
S113040015018017910749F4809116019091170105
S11304108617970711F462DF6BDFB701C801C1DFEC
S1130420892B09F0A4C08ED147DF20910A013091B5
S11304300B01821793075CF56E2D802F66DEC09149
S11304401801D091190101C0EC018E819F810097A0
S1130450D9F788E090E0D7D1FC0111830083F382BF
S1130460E28280910C0190910D019583848317821F
S11304701682FF83EE83019690930D0180930C0105
S1130480E2E2F1E011830083F382E28280C06E2D08
S1130490802F3BDEE0911801F091190144815581D0
S11304A0309749F466C024813581241735073CF41C
S11304B06C01A90104C080E090E0C12CD12C01960C
S11304C00680F781E02D309771F7C601D8D080906F
S11304D018019090190188E090E095D15C01811495
S11304E0910409F454C0C114D10439F080E090E0BF
S11304F037C0C816D90699F508C0E401812C912C9F
S113050004C0C12CD12C812C912C6A8188810CDEF1
S1130510F50111830083F382E28280910C019091B2
S11305200D01958384832E813F8137832683019631
S113053090930D0180930C01CE01FDD1CD2829F4B7
S1130540B0921901A092180103C0F401B782A682E7
S1130550E2E2F1E011830083F382E28218C04E01EB
S1130560F401C681D7810196209719F610C0BFDD2A
S11305700EC080E090E083D0C0911801D0911901A1
S113058088E090E040D15C01209709F0BACFDF9178
S1130590CF911F910F91FF90EF90DF90CF90BF907C
S11305A0AF909F908F900895E2E2F1E08081918175
S11305B06281738101968830910511F480E090E0A6
S11305C00EDF28CE08958FEF87BBBB98C09A82E5D3
S11305D08DB908958FB9779BFECF089598B321E024
S11305E030E002C0220F331F8A95E2F720952923B9
S11305F028BB089598B321E030E002C0220F331FD6
S11306008A95E2F7292B28BB089580E0E7DF89E08B
S1130610E1DF8FEFDFDF80E0EDDF80E0DFDF8AE026
S1130620D9DF8FE0D7DF80E0E5DF80E0D7DF8BE044
S1130630D1DF83E0CFDF80E0DDDF80E0CFDF8CE05F
S1130640C9DF81E0C7DF80E0D5CF0895CF93DF9382
S1130650D82FC62F80E0C2DF8D2FBCDF8C2FBADFEE
S113066080E0C8DFDF91CF910895CF93C1E060E0CF
S11306708C2FECDFCF5FC530D1F7CF9108950F9366
S11306801F93CF93DF93082F192FEFDFC02FD12FA4
S1130690C03187E2D80714F0CFE0D7E2DD2354F568
S11306A0C9318CEFD80714F4C9E1DCEF8E01DD23E6
S11306B024F4002711270C1B1D0B6AE084E0C6DF1D
S11306C0C80164E670E078D0CB01CAE0D0E0BE0196
S11306D073D0682F83E0BADFC801BE016DD0182F34
S11306E0CB01BE0169D0682F82E0B0DF612F81E0C9
S11306F0ADDF23C0CE0168EE73E05ED0CB010AE02B
S113070010E0B80159D0682F84E0A0DFCE0164E680
S113071070E052D0CB01B8014FD0682F83E096DF50
S1130720CE01B80149D0C82FCB01B80145D0682FFC
S113073082E08CDF6C2F81E089DFDF91CF911F9104
S11307400F91089580910E0190910F01029690935C
S11307500F0180930E0193CF089581E087BB33DFAF
S113076054DF48DD84EF91E016D08FE08ABB64E06B
S113077070E084E090E06DDD88EE93E00CD0B8DDAD
S1130780ADDDACDDABDDAADDA9DDA8DD0DDF88EED6
S113079093E001D0FBCF181619066CF420E030E08A
S11307A0EFECF7E03197F1F700C000002F5F3F4F07
S11307B082179307A9F7089597FB072E16F4009460
S11307C006D077FD08D00BD007FC05D03EF49095F9
S11307D081959F4F0895709561957F4F0895AA1B49
S11307E0BB1B51E107C0AA1FBB1FA617B70710F018
S11307F0A61BB70B881F991F5A95A9F7809590954A
S1130800BC01CD0108950F931F93CF93DF938230E2
S1130810910510F482E090E0E0912801F091290123
S113082020E030E0A0E0B0E0309719F14081518140
S11308300281138148175907C8F08417950769F492
S1130840109731F012960C93129713961C9327C0AD
S1130850009328011093290122C02115310519F0B4
S11308604217530718F49A01BD01EF01DF01F801A3
S1130870DBCF21153105F9F0281B390B2430310564
S113088080F48A819B816115710521F0FB019383BA
S1130890828304C09093290180932801FE0132963B
S11308A044C0FE01E20FF31F81939193225031095A
S11308B0398328833AC02091260130912701232BC4
S11308C041F42091020130910301309327012093D8
S11308D0260120910001309101012115310541F4D7
S11308E02DB73EB74091040150910501241B350BEF
S11308F0E0912601F0912701E217F307A0F42E1BE3
S11309003F0B2817390778F0AC014E5F5F4F24176F
S1130910350748F04E0F5F1F50932701409326017F
S11309208193919302C0E0E0F0E0CF01DF91CF9199
S11309301F910F910895CF93DF93009709F481C01D
S1130940FC01329713821282A0912801B0912901EF
S1130950109781F420813181820F931F2091260109
S1130960309127012817390751F5F0932701E093B7
S1130970260167C0ED0120E030E0CE17DF0740F428
S11309804A815B819E0141155105F1F0EA01F5CFE1
S1130990D383C28340815181840F951FC817D9071F
S11309A059F488819981840F951F029691838083DD
S11309B08A819B81938382832115310529F4F093E5
S11309C02901E09328013DC0E901FB83EA834991B1
S11309D05991C40FD51FEC17FD0761F480819181F3
S11309E0840F951F0296E9019983888382819381FC
S11309F09B838A83E0E0F0E012968D919C9113979B
S1130A00009719F0FD01DC01F7CF8D919C911197AE
S1130A109D012E5F3F4F820F931F2091260130913D
S1130A2027012817390769F4309729F4109229010E
S1130A301092280102C013821282B0932701A0935E
S1130A402601DF91CF9108958F929F92AF92BF922A
S1130A50CF92DF92EF92FF92CF93DF93EC01688104
S1130A6079818A819B81611571058105910521F444
S1130A7064E279ED8BE597E02DE133EF41E050E05E
S1130A8038D049015A019B01AC01A7EAB1E44DD029
S1130A906B017C01ACEEB4EFA501940152D0DC01F2
S1130AA0CB018C0D9D1DAE1DBF1DB7FF03C001976B
S1130AB0A109B04888839983AA83BB839F77DF9178
S1130AC0CF91FF90EF90DF90CF90BF90AF909F9029
S1130AD08F900895B9CF86E091E0B6CFA0E0B0E062
S1130AE08093060190930701A0930801B093090134
S1130AF00895052E97FB16F400940FD057FD05D0EA
S1130B0024D007FC02D046F408C050954095309597
S1130B1021953F4F4F4F5F4F089590958095709565
S1130B2061957F4F8F4F9F4F089531D0A59F900DB2
S1130B30B49F900DA49F800D911D11240895B7FFBB
S1130B40F4CFF3DF821B930B0895A1E21A2EAA1BA4
S1130B50BB1BFD010DC0AA1FBB1FEE1FFF1FA21769
S1130B60B307E407F50720F0A21BB30BE40BF50B66
S1130B70661F771F881F991F1A9469F760957095EF
S1130B80809590959B01AC01BD01CF010895A29F72
S1130B90B001B39FC001A39F700D811D1124911D4D
S1130BA0B29F700D811D1124911D0895F894FFCFFB
S10F0BB000002E012000010000000400E1
S9030000FC
