S014000045696E646F706472616368742E737265633B
S113000045C0000060C000005EC000005CC000008D
S11300105AC0000058C0000056C0000054C0000080
S113002052C0000050C000004EC000004CC0000090
S11300304AC0000048C0000046C0000044C00000A0
S113004042C0000040C000003EC000003CC00000B0
S11300503AC0000038C0000036C0000034C00000C0
S113006032C0000030C000002EC000002CC00000D0
S11300702AC0000028C0000026C0000024C00000E0
S113008022C0000020C000001EC0000011241FBEBA
S1130090CFEFD0E1DEBFCDBF11E0A0E0B1E0EAE6F2
S11300A0F9E000E00BBF02C007900D92A830B10741
S11300B0D9F721E0A8E0B1E001C01D92AE31B2074A
S11300C0E1F7ABD250C49CCFE82FF0E0E05FFE4FE5
S11300D081E090E002C0880F991F6A95E2F7908151
S11300E0892B80830895E82FF0E0E05FFE4F81E0E4
S11300F090E002C0880F991F6A95E2F790818927E2
S1130100808308951092710080E2809370000895B6
S113011084EA80937400E4E7F0E080818823ECF7BC
S113012008958093730084E880937400E4E7F0E01A
S113013080818823ECF708950F931F93CF93DF9367
S1130140C82FE6DF8C2FEDDF81E2EBDF04E710E060
S1130150D4E9F801D083DCDF8C2FE3DF80EAE1DF30
S1130160F801D083D5DF8C2FDCDF81EEDADFF801F4
S1130170D083CEDF8C2FD5DF81E8D3DFF801D083A5
S1130180C7DF8C2FCEDF80E0CCDFD8E0C5E5C0959B
S11301908C2F80FB879587F9C4DF80E0C2DFD150C4
S11301A0B1F784E980937400DF91CF911F910F918F
S11301B00895A8DF84EEC0DF10921901109218018F
S11301C008950F931F93CF93DF93A2DF84EEA9DFEB
S11301D080E0A7DFC8E1D1E000E111E08A9180FB73
S11301E0879587F99EDF80E09CDFC017D107B1F7C0
S11301F084E980937400DF91CF911F910F9108954A
S1130200CF93DF93C82FD62FECE0F1E08083918366
S11302106283738388E090E085D2FC019093190196
S11302208093180180910C0190910D01A0910E0111
S1130230B0910F0180839183A283B383209108013D
S11302403091090135832483178216822F5F3F4F33
S113025030930901209308016D2F8C2F35DFB1DF16
S1130260DF91CF910895E0911801F0911901309731
S113027049F080E090E001960680F781E02D309708
S1130280D1F7089580E090E008958091060190915F
S1130290070101969093070180930601A8C1089570
S11302A06F927F928F929F92AF92BF92CF92DF9282
S11302B0EF92FF920F931F93CF93DF93982E792E93
S11302C0862E672E9FD1CFDF209106013091070142
S11302D0821793075CF5682D892DF6DEC09118010D
S11302E0D091190101C0EC018E819F810097D9F74B
S11302F088E090E017D2FC0190827182828263824E
S11303008091080190910901958384831782168254
S1130310FF83EE8301969093090180930801ECE03A
S1130320F1E0908271828282638269C0682D892D96
S1130330CBDEE0901801F0901901F701448155815A
S1130340E114F10449F45BC02C813D812417350785
S113035044F46C01A90105C0E70180E090E0C12CE0
S1130360D12C01960E80DF81C02D209769F73CC007
S1130370C816D90681F502C087017E01F8016281A1
S11303808081B1DEF50190827182828263828091E4
S113039008019091090195838483F80126813781AE
S11303A0F501378326830196909309018093080110
S11303B0C80150D2CD2829F4B0921901A092180195
S11303C003C0F701B782A682ECE0F1E0908271826B
S11303D08282638214C07801F70106811781019635
S11303E00115110529F60BC088E090E09BD15C0152
S11303F0C114D10409F4C0CF80E090E0EDCFDF91C7
S1130400CF911F910F91FF90EF90DF90CF90BF900D
S1130410AF909F908F907F906F900895ECE0F1E003
S1130420808191816281738101973ADFCACE0895F8
S1130430ECE0F1E08081918162817381019630DF8B
S1130440C0CE0895ECE0F1E0628173816F5F7F4F6D
S11304508081918125DFB5CE0895ECE0F1E06281E1
S1130460738161507109808191811ADFAACE089548
S11304708FEF87BBBB98C09A82E58DB908958FB979
S1130480779BFECF089598B321E030E002C0220F9D
S1130490331F8A95E2F72095292328BB089598B342
S11304A021E030E002C0220F331F8A95E2F7292BA6
S11304B028BB089580E0E7DF89E0E1DF8FEFDFDF2D
S11304C080E0EDDF80E0DFDF8AE0D9DF8FE0D7DF97
S11304D080E0E5DF80E0D7DF8BE0D1DF83E0CFDFB2
S11304E080E0DDDF80E0CFDF8CE0C9DF81E0C7DFC3
S11304F080E0D5CF0895CF93DF93D82FC62F80E027
S1130500C2DF8D2FBCDF8C2FBADF80E0C8DFDF9124
S1130510CF910895CF93C1E060E08C2FECDFCF5FE3
S1130520C530D1F7CF9108950F931F93CF93DF93E5
S1130530082F192FEFDFC02FD12FC03187E2D80742
S113054014F0CFE0D7E2DD2354F5C9318CEFD8079E
S113055014F4C9E1DCEF8E01DD2324F40027112714
S11305600C1B1D0B6AE084E0C6DFC80164E670E082
S1130570B2D0CB01CAE0D0E0BE01ADD0682F83E099
S1130580BADFC801BE01A7D0182FCB01BE01A3D08A
S1130590682F82E0B0DF612F81E0ADDF23C0CE01A0
S11305A068EE73E098D0CB010AE010E0B80193D074
S11305B0682F84E0A0DFCE0164E670E08CD0CB012C
S11305C0B80189D0682F83E096DFCE01B80183D0CB
S11305D0C82FCB01B8017FD0682F82E08CDF6C2F4D
S11305E081E089DFDF91CF911F910F910895809170
S11305F00A0190910B01449690930B0180930A0198
S113060093CF089580910A0190910B0102969093E3
S11306100B0180930A0188CF089581E087BB28DF0E
S113062049DFC7DD84EF91E045D08FE08ABB64E009
S113063070E084E090E0E4DD88EE93E03BD0F8DE07
S113064088EE93E037D0F4DE88EE93E033D0F0DE2A
S113065088EE93E02FD0F6DE88EE93E02BD0F2DE26
S113066088EE93E027D0DADE88EE93E023D00DDE27
S1130670D5DE88EE93E01ED0D1DE88EE93E01AD06A
S113068004DECCDE88EE93E015D0C8DE88EE93E07D
S113069011D0C4DE88EE93E00DD0DFDE88EE93E067
S11306A009D0DBDE88EE93E005D0D7DE88EE93E058
S11306B001D0FFCF181619066CF420E030E0EFECFF
S11306C0F7E03197F1F700C000002F5F3F4F82172A
S11306D09307A9F7089597FB072E16F4009406D004
S11306E077FD08D00BD007FC05D03EF4909581959A
S11306F09F4F0895709561957F4F0895AA1BBB1B6A
S113070051E107C0AA1FBB1FA617B70710F0A61B0D
S1130710B70B881F991F5A95A9F780959095BC012E
S1130720CD0108950F931F93CF93DF9382309105EA
S113073010F482E090E0E0911C01F0911D0120E0B2
S113074030E0A0E0B0E0309719F14081518102819E
S1130750138148175907C8F08417950769F410974F
S113076031F012960C93129713961C9327C00093A2
S11307701C0110931D0122C02115310519F04217E7
S1130780530718F49A01BD01EF01DF01F801DBCF33
S113079021153105F9F0281B390B2430310580F47B
S11307A08A819B816115710521F0FB01938382830A
S11307B004C090931D0180931C01FE01329644C035
S11307C0FE01E20FF31F8193919322503109398383
S11307D028833AC020911A0130911B01232B41F444
S11307E0209102013091030130931B0120931A01DF
S11307F020910001309101012115310541F42DB7FB
S11308003EB74091040150910501241B350BE09142
S11308101A01F0911B01E217F307A0F42E1B3F0B02
S11308202817390778F0AC014E5F5F4F241735075E
S113083048F04E0F5F1F50931B0140931A018193A0
S1130840919302C0E0E0F0E0CF01DF91CF911F91DE
S11308500F910895CF93DF93009709F481C0FC01B1
S1130860329713821282A0911C01B0911D0110973E
S113087081F420813181820F931F20911A013091DC
S11308801B012817390751F5F0931B01E0931A0156
S113089067C0ED0120E030E0CE17DF0740F44A8165
S11308A05B819E0141155105F1F0EA01F5CFD38337
S11308B0C28340815181840F951FC817D90759F409
S11308C088819981840F951F0296918380838A8100
S11308D09B81938382832115310529F4F0931D01B3
S11308E0E0931C013DC0E901FB83EA8349915991DE
S11308F0C40FD51FEC17FD0761F480819181840F2B
S1130900951F0296E90199838883828193819B8351
S11309108A83E0E0F0E012968D919C911397009702
S113092019F0FD01DC01F7CF8D919C9111979D0188
S11309302E5F3F4F820F931F20911A0130911B01AC
S11309402817390769F4309729F410921D01109281
S11309501C0102C013821282B0931B01A0931A01DE
S10D0960DF91CF910895F894FFCFC2
S10B096A00001E01200004003E
S9030000FC
