S014000045696E646F706472616368742E737265633B
S113000045C0000060C000005EC000005CC000008D
S11300105AC0000058C0000056C0000054C0000080
S113002052C000004BC500004EC000004CC0000090
S11300304AC0000048C0000046C0000044C00000A0
S113004042C0000040C000003EC000003CC00000B0
S11300503AC0000038C0000036C0000034C00000C0
S113006032C0000030C000002EC000002CC00000D0
S11300702AC0000028C0000026C0000024C00000E0
S113008022C0000020C000001EC0000011241FBEBA
S1130090CFEFD0E1DEBFCDBF11E0A0E0B1E0E6E3F9
S11300A0F0E100E00BBF02C007900D92A032B1074F
S11300B0D9F721E0A0E2B1E001C01D92A734B20754
S11300C0E1F723D5B6C79CCFFC010FB6F894609135
S11300D043017091440180914501909146010FBE06
S11300E0309721F0608371838283938308958FE036
S11300F08ABB89B3817851F080912001813059F114
S11301001092200189B3827851F50BC089B38278AB
S113011041F080912001882311F181E08093200136
S11301201EC089B3847849F0809120018330D9F0CE
S113013082E08093200189B30AC089B3887839F0BA
S113014080912001823019F083E080932001809116
S1130150200190E0089589B38278F9F608C089B344
S1130160847831F7EACF89B3887871F7F0CF89B30F
S11301708478F1F6E2CFE5E3F1E0108286E681834C
S1130180828313829CE39483858383EC8683178222
S113019008958230910599F08330910519F0019703
S11301A051F51BC0E5E3F1E08EE78083818396E09F
S11301B09283838384839583868387830895E5E389
S11301C0F1E08EE78083818396E092838383848346
S11301D090E69583868387830895E5E3F1E088E1DB
S11301E0808398E3918398E79283838384838583D0
S11301F08EE7868387830895E82FF0E0EB5CFE4F5B
S113020081E090E002C0880F991F6A95E2F790811F
S1130210892B80830895E1E3F1E0918380837383E4
S1130220628388E090E032D5FC0190933E01809394
S11302303D018091310190913201A0913301B0913F
S1130240340180839183A283B3832091210130916F
S1130250220135832483178216822F5F3F4F309308
S11302602201209321010895E82FF0E0EB5CFE4F7A
S113027081E090E002C0880F991F6A95E2F79081AF
S1130280892780830895E5E3F1E08DE391E01192FD
S1130290E817F907E1F708951092710080E280935E
S11302A07000089584EA80937400E4E7F0E08081AC
S11302B08823ECF708958093730084E88093740096
S11302C0E4E7F0E080818823ECF708950F931F930F
S11302D0CF93DF93C82FE6DF8C2FEDDF81E2EBDFD6
S11302E004E710E0D4E9F801D083DCDF8C2FE3DFEE
S11302F080EAE1DFF801D083D5DF8C2FDCDF81EEEB
S1130300DADFF801D083CEDF8C2FD5DF81E8D3DFAD
S1130310F801D083C7DF8C2FCEDF80E0CCDFD8E0BC
S1130320C5E5C0958C2F80FB879587F9C4DF80E0F5
S1130330C2DFD150B1F784E980937400DF91CF918B
S11303401F910F910895A8DF84EEC0DF10923E0143
S113035010923D0189E291E0B7DECB0102D6FED5D1
S1130360FDD5FCC508950F931F93CF93DF939ADFB8
S113037084EEA1DF80E09FDFCDE3D1E005E311E06F
S11303808A9180FB879587F996DF80E094DFC01718
S1130390D107B1F784E980937400DF91CF911F9165
S11303A00F910895E0913D01F0913E0162818081B9
S11303B023DFD9CF0895E0913D01F0913E013097BC
S11303C049F080E090E001960680F781E02D3097B7
S11303D0D1F7089580E090E0089580910A0190910A
S11303E00B01019690930B0180930A010895CF931A
S11303F0DF93B4D5B3D5B2D5B1D5B0D5AFD5AED5DD
S113040087709078992324F40197886F9F6F0196E1
S1130410EC01A4D587709078992324F40197886F10
S11304209F6F0196BC01E0913D01F0913E01309730
S113043059F1208131812C173D0709F5828193817F
S113044086179707D9F48AD589D588D58770907887
S1130450992324F40197886F9F6F0196EC017ED550
S113046087709078992324F40197886F9F6F019681
S1130470BC01E0913D01F0913E0101C0E90106801B
S1130480F781E02D3097A9F6EDE2F1E0D183C08346
S1130490738362838C2FB0DE66DFDF91CF91089582
S11304A0E0913D01F0913E01309791F0208131813E
S11304B02817390729F4228133812617370759F081
S11304C00680F781E02D309789F780E090E0089569
S11304D080E090E0089581E090E00895CF93DF9369
S11304E080913D0190913E01009799F4D82FC92F36
S11304F0ED2FFC2F01C0F90126813781211531052B
S1130500D1F7CF015BD480913D0190913E01892BBD
S113051079F384E090E090930B0180930A01DF91DA
S1130520CF9108956F927F928F929F92AF92BF92D4
S1130530CF92DF92EF92FF920F931F93CF93DF93AB
S11305406C015B0180912D0190912E018C159D050C
S113055051F480912F01909130018617970719F477
S11305603CDF45DFC7D1B501C6019ADF892B09F00D
S11305709AC0D3D120DF20910A0130910B01821758
S113058093076CF56A2D8C2D37DEC0913D01D09117
S11305903E0101C0EC018E819F810097D9F788E06C
S11305A090E074D3FC01D182C082B382A282809194
S11305B02101909122019583848317821682FF83FF
S11305C0EE8301969093220180932101E1E3F1E00F
S11305D0D182C082B382A28281E090E073C06A2D8E
S11305E08C2D0ADEE0903D01F0903E01F70144813C
S11305F05581E114F10459F481E090E063C02C8149
S11306003D812417350744F44C01A90105C0E701D5
S113061080E090E0812C912C01960E80DF81C02D2A
S1130620209769F744C08816990691F502C087019E
S11306307E01F8016281808117DEF301D182C082DC
S1130640B382A282809121019091220195838483B7
S1130650F80126813781F30137832683019690932D
S1130660220180932101C801A9D3892829F4709219
S11306703E0160923D0103C0F70177826682E1E3A7
S1130680F1E0D182C082B382A28281E090E01AC0FC
S11306907801F7010681178101960115110519F6F4
S11306A081E090E00FC0EFDD80E090E00BC088E0D7
S11306B090E0ECD23C018114910409F4B8CF80E0BD
S11306C090E0E7CFDF91CF911F910F91FF90EF90D2
S11306D0DF90CF90BF90AF909F908F907F906F905E
S11306E00895E1E3F1E08081918162817381019752
S11306F010F487E090E016DF009719F034DE81E013
S113070090E00895E1E3F1E0808191816281738159
S113071001968830910511F480E090E003DF0097A2
S113072019F021DE81E090E00895E1E3F1E08081B9
S11307309181628173816F5F7F4F6830710511F41D
S113074060E070E0EFDE009719F00DDE81E090E0EC
S11307500895E1E3F1E080819181628173816150C8
S1130760710910F467E070E0DDDE009719F0FBDD3D
S113077081E090E008958FEF87BBBB98C09A82E533
S11307808DB908958FB9779BFECF089598B321E072
S113079030E002C0220F331F8A95E2F72095292307
S11307A028BB089598B321E030E002C0220F331F24
S11307B08A95E2F7292B28BB089580E0E7DF89E0DA
S11307C0E1DF8FEFDFDF80E0EDDF80E0DFDF8AE075
S11307D0D9DF8FE0D7DF80E0E5DF80E0D7DF8BE093
S11307E0D1DF83E0CFDF80E0DDDF80E0CFDF8CE0AE
S11307F0C9DF81E0C7DF80E0D5CF0895CF93DF93D1
S1130800D82FC62F80E0C2DF8D2FBCDF8C2FBADF3C
S113081080E0C8DFDF91CF910895CF93C1E060E01D
S11308208C2FECDFCF5FC530D1F7CF9108950F93B4
S11308301F93CF93DF93082F192FEFDFC02FD12FF2
S1130840C03187E2D80714F0CFE0D7E2DD2354F5B6
S1130850C9318CEFD80714F4C9E1DCEF8E01DD2334
S113086024F4002711270C1B1D0B6AE084E0C6DF6B
S1130870C80164E670E0E3D1CB01CAE0D0E0BE0178
S1130880DED1682F83E0BADFC801BE01D8D1182FAA
S1130890CB01BE01D4D1682F82E0B0DF612F81E0AB
S11308A0ADDF23C0CE0168EE73E0C9D1CB010AE00D
S11308B010E0B801C4D1682F84E0A0DFCE0164E663
S11308C070E0BDD1CB01B801BAD1682F83E096DFC7
S11308D0CE01B801B4D1C82FCB01B801B0D1682F73
S11308E082E08CDF6C2F81E089DFDF91CF911F9153
S11308F00F9108958091230190912401449690933F
S113090024018093230193CF08951092240110921F
S1130910230180E090E08BCF0895089523D181E0F6
S113092053D18CE051D182E04FD18EE091E03ED1A1
S113093088EA4AD185E191E039D188EA45D187E155
S113094091E034D1FFCF809125019091260181302F
S1130950910521F410DC07DD48C10895813A9F40D8
S11309607CF010922801BADDD0DF8DDCFCDC64E081
S113097070E084E090E04FDC109226011092250193
S1130980089580910C0190910D01892B59F0AFDBF2
S113099090912701891731F010920D0110920C01EA
S11309A0809327018091250190912601883C91052F
S11309B079F510922601109225018091270181304A
S11309C069F028F0823089F08330B1F01BC089DEF1
S11309D0892BC1F482E08093280114C093DE892B13
S11309E089F482E0809328010DC09FDE892B51F4A5
S11309F082E08093280106C0ACDE892B19F482E0E2
S1130A008093280181E090E090930D0180930C0184
S1130A10089580912501909126018C3B22E0920754
S1130A2039F4DED083E090E0B4DB9DDCDCC00895D3
S1130A30883725E0920739F4D3D082E090E0A9DB2F
S1130A4092DCD1C00895843328E0920739F4C8D0E9
S1130A5081E090E09EDB87DCC6C00895803F9A4029
S1130A6089F4BED010DC9EDCC2DC7DDCBCD081E02D
S1130A708093280110920D0110920C01109226010E
S1130A8010922501089580912801813031F038F0C9
S1130A90823039F0833039F007C073DF05C0B9DF25
S1130AA003C051DF01C03ADF8091250190912601F6
S1130AB00196909326018093250108951F920F9229
S1130AC00FB60F9211240BB60F922F933F934F93AF
S1130AD05F936F937F938F939F93AF93BF93EF93A2
S1130AE0FF93D1DFFF91EF91BF91AF919F918F91D0
S1130AF07F916F915F914F913F912F910F900BBE1A
S1130B000F900FBE0F901F90189581E087BB33DEC6
S1130B1054DE19DC84EF91E081D08FE08ABB8FEF43
S1130B2084BB64E070E084E090E075DB87E083BD23
S1130B3088E085BD87B7846887BF85B5856085BD36
S1130B4014BC7894FFCFAB9A8FEC97E00197F1F740
S1130B5000C00000AB988FEC97E00197F1F700C05C
S1130B6000000895CF938FEF84BB15BAC0E2C5BBD4
S1130B70EADFC5BBE8DF80E885BBE5DF15BAE3DF64
S1130B8080EF85BBE0DF15BADEDF80E685BBDBDF07
S1130B90CF910895CF93C82F85BBAA9AD4DFC2956D
S1130BA0C07FC5BBAA9ACFDFCF910895CF93DF93BF
S1130BB0EC018881882329F02196ECDF8991811149
S1130BC0FCCFDF91CF910895CF93C82F85BBAA980E
S1130BD0BADFC295C07FC5BBAA98B5DFCF9108958F
S1130BE08FEF85BB089515BA0895CF93CFEFC5BB9A
S1130BF08CE291E013D015BA84EF91E00FD0C5BB1D
S1130C0084EF91E00BD015BA84EF91E007D0C5BB17
S1130C1080ED97E003D015BACF9108951816190600
S1130C206CF420E030E0EFECF7E03197F1F700C02E
S1130C3000002F5F3F4F82179307A9F7089597FB92
S1130C40072E16F4009406D077FD08D00BD007FCCD
S1130C5005D03EF4909581959F4F089570956195C8
S1130C607F4F0895AA1BBB1B51E107C0AA1FBB1FDE
S1130C70A617B70710F0A61BB70B881F991F5A9524
S1130C80A9F780959095BC01CD0108950F931F930A
S1130C90CF93DF938230910510F482E090E0E091ED
S1130CA04101F091420120E030E0A0E0B0E0309753
S1130CB019F1408151810281138148175907C8F005
S1130CC08417950769F4109731F012960C931297D4
S1130CD013961C9327C0009341011093420122C034
S1130CE02115310519F04217530718F49A01BD0173
S1130CF0EF01DF01F801DBCF21153105F9F0281BE5
S1130D00390B2430310580F48A819B81611571058A
S1130D1021F0FB019383828304C09093420180936A
S1130D204101FE01329644C0FE01E20FF31F81939C
S1130D30919322503109398328833AC020913F018D
S1130D4030914001232B41F42091020130910301A1
S1130D503093400120933F01209100013091010123
S1130D602115310541F42DB73EB74091040150914E
S1130D700501241B350BE0913F01F0914001E2177E
S1130D80F307A0F42E1B3F0B2817390778F0AC01AA
S1130D904E5F5F4F2417350748F04E0F5F1F509387
S1130DA0400140933F018193919302C0E0E0F0E061
S1130DB0CF01DF91CF911F910F910895CF93DF93CE
S1130DC0009709F481C0FC01329713821282A0912A
S1130DD04101B0914201109781F420813181820F49
S1130DE0931F20913F01309140012817390751F595
S1130DF0F0934001E0933F0167C0ED0120E030E053
S1130E00CE17DF0740F44A815B819E0141155105ED
S1130E10F1F0EA01F5CFD383C28340815181840F7D
S1130E20951FC817D90759F488819981840F951F94
S1130E300296918380838A819B8193838283211587
S1130E40310529F4F0934201E09341013DC0E901E9
S1130E50FB83EA8349915991C40FD51FEC17FD0711
S1130E6061F480819181840F951F0296E901998331
S1130E708883828193819B838A83E0E0F0E01296E9
S1130E808D919C911397009719F0FD01DC01F7CF28
S1130E908D919C9111979D012E5F3F4F820F931F5F
S1130EA020913F01309140012817390769F43097A8
S1130EB029F4109242011092410102C0138212825D
S1130EC0B0934001A0933F01DF91CF9108958F9299
S1130ED09F92AF92BF92CF92DF92EF92FF92CF9305
S1130EE0DF93EC01688179818A819B8161157105A9
S1130EF08105910521F464E279ED8BE597E02DE11C
S1130F0033EF41E050E038D049015A019B01AC0174
S1130F10A7EAB1E44DD06B017C01ACEEB4EFA501BE
S1130F20940152D0DC01CB018C0D9D1DAE1DBF1D63
S1130F30B7FF03C00197A109B04888839983AA83A6
S1130F40BB839F77DF91CF91FF90EF90DF90CF909D
S1130F50BF90AF909F908F900895B9CF86E091E0B5
S1130F60B6CFA0E0B0E08093060190930701A09370
S1130F700801B09309010895052E97FB16F4009417
S1130F800FD057FD05D024D007FC02D046F408C08A
S1130F9050954095309521953F4F4F4F5F4F0895A1
S1130FA090958095709561957F4F8F4F9F4F0895D1
S1130FB031D0A59F900DB49F900DA49F800D911DDD
S1130FC011240895B7FFF4CFF3DF821B930B089528
S1130FD0A1E21A2EAA1BBB1BFD010DC0AA1FBB1F39
S1130FE0EE1FFF1FA217B307E407F50720F0A21BAB
S1130FF0B30BE40BF50B661F771F881F991F1A9418
S113100069F760957095809590959B01AC01BD0141
S1131010CF010895A29FB001B39FC001A39F700D9B
S1131020811D1124911DB29F700D811D1124911DEC
S10910300895F894FFCFBF
S113103600004701200001000000040001003E20DA
S11310464561737900200020204E6F726D616C003B
S9030000FC
