S014000045696E646F706472616368742E737265633B
S113000045C0000060C000005EC000005CC000008D
S11300105AC0000058C0000056C0000054C0000080
S113002052C0000050C000004EC000004CC0000090
S11300304AC0000048C0000046C0000044C00000A0
S113004042C0000040C000003EC000003CC00000B0
S11300503AC0000038C0000036C0000034C00000C0
S113006032C0000030C000002EC000002CC00000D0
S11300702AC0000028C0000026C0000024C00000E0
S113008022C0000020C000001EC0000011241FBEBA
S1130090CFEFD0E1DEBFCDBF11E0A0E0B1E0ECE7EF
S11300A0F7E000E00BBF02C007900D92A830B10743
S11300B0D9F721E0A8E0B1E001C01D92AC31B2074C
S11300C0E1F7EDD159C39CCFE82FF0E0E05FFE4F9C
S11300D081E090E002C0880F991F6A95E2F7908151
S11300E0892B80830895E82FF0E0E05FFE4F81E0E4
S11300F090E002C0880F991F6A95E2F790818927E2
S1130100808308951092710080E2809370000895B6
S113011084EA80937400E4E7F0E080818823ECF7BC
S113012008958093730084E880937400E4E7F0E01A
S113013080818823ECF708950F931F93CF93DF9367
S1130140C82FE6DF8C2FEDDF81E2EBDF04E710E060
S1130150D4E9F801D083DCDF8C2FE3DF80EAE1DF30
S1130160F801D083D5DF8C2FDCDF81EEDADFF801F4
S1130170D083CEDF8C2FD5DF81E8D3DFF801D083A5
S1130180C7DF8C2FCEDF80E0CCDFD8E0C5E5C0959B
S11301908C2F80FB879587F9C4DF80E0C2DFD150C4
S11301A0B1F784E980937400DF91CF911F910F918F
S11301B00895A8DF84EEC0DF10920B0110920A01AB
S11301C008950F931F93CF93DF93A2DF84EEA9DFEB
S11301D080E0A7DFC8E1D1E000E111E08A9180FB73
S11301E0879587F99EDF80E09CDFC017D107B1F7C0
S11301F084E980937400DF91CF911F910F9108954A
S1130200CF93DF93C82FD62FECE0F1E08083918366
S11302106283738388E090E08ED1FC0190930B019C
S113022080930A0180910C0190910D01A0910E011F
S1130230B0910F0180839183A283B383209108013D
S11302403091090135832483178216822F5F3F4F33
S113025030930901209308016D2F8C2F35DFB1DF16
S1130260DF91CF910895E0910A01F0910B0130974D
S113027049F080E090E001960680F781E02D309708
S1130280D1F7089580E090E00895AF92BF92CF92A5
S1130290DF92EF92FF920F931F93CF93DF93E82E99
S11302A0C92EF62ED72EDFDF2091060130910701EB
S11302B0821793075CF56F2D8E2D06DFC0910A011E
S11302C0D0910B0101C0EC018E819F810097D9F779
S11302D088E090E030D1FC01E082C182F282D382D6
S11302E08091080190910901958384831782168275
S11302F0FF83EE8301969093090180930801ECE05B
S1130300F1E0E082C182F282D38251C06F2D8E2D42
S1130310DBDEC0910A01D0910B014C815D81EE813D
S1130320FF813097A9F0DE0120E030E001C0FC013C
S113033014968D919C9115974817590714F08901CB
S1130340AC012F5F3F4F86819781DF01009779F7DA
S113035088E090E0F0D05C0126C00115110511F58C
S11303606A818881C0DEF501E082C182F282D38293
S11303708091080190910901958384832E813F81A6
S11303803783268301969093090180930801B092E4
S11303900B01A0920A01ECE0F1E0E082C182F2825A
S11303A0D38205C0EC018E819F810097B1F6DF9165
S11303B0CF911F910F91FF90EF90DF90CF90BF905E
S11303C0AF900895ECE0F1E08081918162817381C6
S11303D001975BDFF6CE0895ECE0F1E08081918136
S11303E062817381019651DFECCE0895ECE0F1E077
S11303F0628173816F5F7F4F8081918146DFE1CE9F
S11304000895ECE0F1E062817381615071098081AB
S113041091813BDFD6CE08958FEF87BBBB98C09AFE
S113042082E58DB908958FB9779BFECF089598B36F
S113043021E030E002C0220F331F8A95E2F72095B5
S1130440292328BB089598B321E030E002C0220F8D
S1130450331F8A95E2F7292B28BB089580E0E7DF54
S113046089E0E1DF8FEFDFDF80E0EDDF80E0DFDFD9
S11304708AE0D9DF8FE0D7DF80E0E5DF80E0D7DFF7
S11304808BE0D1DF83E0CFDF80E0DDDF80E0CFDF12
S11304908CE0C9DF81E0C7DF80E0D5CF089581E03B
S11304A087BBBADFDBDF85DE84EF91E033D08FE0FA
S11304B08ABB64E070E084E090E0A2DE88EE93E022
S11304C029D08ADF88EE93E025D086DF88EE93E09A
S11304D021D08CDF88EE93E01DD088DF88EE93E096
S11304E019D070DF88EE93E015D06CDF88EE93E0CE
S11304F011D087DF88EE93E00DD083DF88EE93E0A0
S113050009D07FDF88EE93E005D07BDF88EE93E0AF
S113051001D0FFCF181619066CF420E030E0EFECA0
S1130520F7E03197F1F700C000002F5F3F4F8217CB
S11305309307A9F708950F931F93CF93DF93823006
S1130540910510F482E090E0E0911A01F0911B0112
S113055020E030E0A0E0B0E0309719F14081518113
S11305600281138148175907C8F08417950769F465
S1130570109731F012960C93129713961C9327C080
S113058000931A0110931B0122C02115310519F0A3
S11305904217530718F49A01BD01EF01DF01F80176
S11305A0DBCF21153105F9F0281B390B2430310537
S11305B080F48A819B816115710521F0FB0193838D
S11305C0828304C090931B0180931A01FE0132962A
S11305D044C0FE01E20FF31F81939193225031092D
S11305E0398328833AC02091180130911901232BB3
S11305F041F42091020130910301309319012093B9
S1130600180120910001309101012115310541F4B7
S11306102DB73EB74091040150910501241B350BC1
S1130620E0911801F0911901E217F307A0F42E1BD1
S11306303F0B2817390778F0AC014E5F5F4F241742
S1130640350748F04E0F5F1F50931901409318016E
S11306508193919302C0E0E0F0E0CF01DF91CF916C
S11306601F910F910895CF93DF93009709F481C0F0
S1130670FC01329713821282A0911A01B0911B01DE
S1130680109781F420813181820F931F20911801EA
S1130690309119012817390751F5F0931901E093A6
S11306A0180167C0ED0120E030E0CE17DF0740F409
S11306B04A815B819E0141155105F1F0EA01F5CFB4
S11306C0D383C28340815181840F951FC817D907F2
S11306D059F488819981840F951F029691838083B0
S11306E08A819B81938382832115310529F4F093B8
S11306F01B01E0931A013DC0E901FB83EA834991A0
S11307005991C40FD51FEC17FD0761F480819181C5
S1130710840F951F0296E9019983888382819381CE
S11307209B838A83E0E0F0E012968D919C9113976D
S1130730009719F0FD01DC01F7CF8D919C91119781
S11307409D012E5F3F4F820F931F2091180130911E
S113075019012817390769F4309729F410921B01FD
S113076010921A0102C013821282B0931901A0934D
S10F07701801DF91CF910895F894FFCF99
S10B077C00001C012000040030
S9030000FC
