S014000045696E646F706472616368742E737265633B
S113000045C0000061C000005FC000005DC000008A
S11300105BC0000059C0000057C0000055C000007C
S113002053C00000D6C500004FC000004DC0000002
S11300304BC0000049C0000047C0000045C000009C
S113004043C0000041C000003FC000003DC00000AC
S11300503BC0000039C0000037C0000035C00000BC
S113006033C0000031C000002FC000002DC00000CC
S11300702BC0000029C0000027C0000025C00000DC
S113008023C0000021C000001FC0000011241FBEB7
S1130090CFEFD0E1DEBFCDBF11E0A0E0B1E0ECE4F2
S11300A0F1E100E00BBF02C007900D92A833B10745
S11300B0D9F721E0A8E3B1E001C01D92A036B20750
S11300C0E1F7AED50C94A4089BCFFC010FB6F894CD
S11300D060915C0170915D0180915E0190915F017E
S11300E00FBE309721F060837183828393830895D8
S11300F08FE08ABB89B3817851F0809138018130D7
S113010059F11092380189B3827851F50BC089B343
S1130110827841F080913801882311F181E0809345
S113012038011EC089B3847849F080913801833046
S1130130D9F082E08093380189B30AC089B3887802
S113014039F080913801823019F083E080933801CE
S11301508091380190E0089589B38278F9F608C057
S113016089B3847831F7EACF89B3887871F7F0CF0F
S113017089B38478F1F6E2CF8FE08ABB89B38178C2
S113018049F489B3827849F489B3887849F484E0DE
S113019090E0089580E090E0089581E090E0089573
S11301A083E090E00895EEE4F1E0108286E6818336
S11301B0828313829CE39483858383EC86831782F2
S11301C008958230910599F08330910519F00197D3
S11301D051F51BC0EEE4F1E08EE78083818396E065
S11301E09283838384839583868387830895EEE44F
S11301F0F1E08EE78083818396E092838383848316
S113020090E69583868387830895EEE4F1E088E1A0
S1130210808398E3918398E792838383848385839F
S11302208EE7868387830895E82FF0E0E25BFE4F34
S113023081E090E002C0880F991F6A95E2F79081EF
S1130240892B80830895EAE4F1E0918380837383AA
S1130250628388E090E0A5D5FC01909357018093D8
S1130260560180914A0190914B01A0914C01B091AB
S11302704D0180839183A283B3832091390130910E
S11302803A0135832483178216822F5F3F4F3093C0
S11302903A01209339010895E82FF0E0E25BFE4F24
S11302A081E090E002C0880F991F6A95E2F790817F
S11302B0892780830895EEE4F1E086E591E01192C8
S11302C0E817F907E1F708951092710080E280932E
S11302D07000089584EA80937400E4E7F0E080817C
S11302E08823ECF708958093730084E88093740066
S11302F0E4E7F0E080818823ECF708950F931F93DF
S1130300CF93DF93C82FE6DF8C2FEDDF81E2EBDFA5
S113031004E710E0D4E9F801D083DCDF8C2FE3DFBD
S113032080EAE1DFF801D083D5DF8C2FDCDF81EEBA
S1130330DADFF801D083CEDF8C2FD5DF81E8D3DF7D
S1130340F801D083C7DF8C2FCEDF80E0CCDFD8E08C
S1130350C5E5C0958C2F80FB879587F9C4DF80E0C5
S1130360C2DFD150B1F784E980937400DF91CF915B
S11303701F910F910895A8DF84EEC0DF10925701FA
S11303801092560182E491E0A0DECB0175D671D6BD
S113039070D66FC608950F931F93CF93DF939ADFA0
S11303A084EEA1DF80E09FDFC6E5D1E00EE411E03A
S11303B08A9180FB879587F996DF80E094DFC017E8
S11303C0D107B1F784E980937400DF91CF911F9135
S11303D00F910895E0915601F09157016281808157
S11303E023DFD9CF0895E0915601F091570130975A
S11303F049F080E090E001960680F781E02D309787
S1130400D1F7089580E090E0089580910A019091D9
S11304100B01019690930B0180930A010895CF93E9
S1130420DF9327D626D625D624D623D622D621D680
S113043087709078992324F40197886F9F6F0196B1
S1130440EC0117D687709078992324F40197886F6C
S11304509F6F0196BC01E0915601F09157013097CE
S113046059F1208131812C173D0709F5828193814F
S113047086179707D9F4FDD5FCD5FBD587709078FE
S1130480992324F40197886F9F6F0196EC01F1D5AD
S113049087709078992324F40197886F9F6F019651
S11304A0BC01E0915601F091570101C0E9010680B9
S11304B0F781E02D3097A9F6E6E4F1E0D183C0831B
S11304C0738362838C2FB0DE66DFDF91CF91089552
S11304D0E0915601F0915701309791F020813181DC
S11304E02817390729F4228133812617370759F051
S11304F00680F781E02D309789F780E090E0089539
S113050080E090E0089581E090E00895CF93DF9338
S11305108091560190915701009799F4D82FC92FD3
S1130520ED2FFC2F01C0F9012681378121153105FA
S1130530D1F7CF01CED48091560190915701892BE8
S113054079F384E090E090930B0180930A01DF91AA
S1130550CF9108956F927F928F929F92AF92BF92A4
S1130560CF92DF92EF92FF920F931F93CF93DF937B
S11305706C015B0180914601909147018C159D05AA
S113058051F480914801909149018617970719F415
S11305903CDF45DFC7D1B501C6019ADF892B09F0DD
S11305A09AC0D3D120DF20910A0130910B01821728
S11305B093076CF56A2D8C2D37DEC0915601D091CE
S11305C0570101C0EC018E819F810097D9F788E023
S11305D090E0E7D3FC01D182C082B382A2828091F1
S11305E0390190913A019583848317821682FF839F
S11305F0EE83019690933A0180933901EAE4F1E0A5
S1130600D182C082B382A28281E090E073C06A2D5D
S11306108C2D0ADEE0905601F0905701F7014481D9
S11306205581E114F10459F481E090E063C02C8118
S11306303D812417350744F44C01A90105C0E701A5
S113064080E090E0812C912C01960E80DF81C02DFA
S1130650209769F744C08816990691F502C087016E
S11306607E01F8016281808117DEF301D182C082AC
S1130670B382A2828091390190913A019583848357
S1130680F80126813781F3013783268301969093FD
S11306903A0180933901C8011CD4892829F4709245
S11306A057016092560103C0F70177826682EAE43B
S11306B0F1E0D182C082B382A28281E090E01AC0CC
S11306C07801F7010681178101960115110519F6C4
S11306D081E090E00FC0EFDD80E090E00BC088E0A7
S11306E090E05FD33C018114910409F4B8CF80E019
S11306F090E0E7CFDF91CF911F910F91FF90EF90A2
S1130700DF90CF90BF90AF909F908F907F906F902D
S11307100895EAE4F1E08081918162817381019717
S113072010F487E090E016DF009719F034DE81E0E2
S113073090E00895EAE4F1E080819181628173811F
S113074001968830910511F480E090E003DF009772
S113075019F021DE81E090E00895EAE4F1E080817F
S11307609181628173816F5F7F4F6830710511F4ED
S113077060E070E0EFDE009719F00DDE81E090E0BC
S11307800895EAE4F1E0808191816281738161508E
S1130790710910F467E070E0DDDE009719F0FBDD0D
S11307A081E090E008958FEF87BBBB98C09A82E503
S11307B08DB908958FB9779BFECF089598B321E042
S11307C030E002C0220F331F8A95E2F720952923D7
S11307D028BB089598B321E030E002C0220F331FF4
S11307E08A95E2F7292B28BB089580E0E7DF89E0AA
S11307F0E1DF8FEFDFDF80E0EDDF80E0DFDF8AE045
S1130800D9DF8FE0D7DF80E0E5DF80E0D7DF8BE062
S1130810D1DF83E0CFDF80E0DDDF80E0CFDF8CE07D
S1130820C9DF81E0C7DF80E0D5CF0895CF93DF93A0
S1130830D82FC62F80E0C2DF8D2FBCDF8C2FBADF0C
S113084080E0C8DFDF91CF910895CF93C1E060E0ED
S11308508C2FECDFCF5FC530D1F7CF9108950F9384
S11308601F93CF93DF93082F192FEFDFC02FD12FC2
S1130870C03187E2D80714F0CFE0D7E2DD2354F586
S1130880C9318CEFD80714F4C9E1DCEF8E01DD2304
S113089024F4002711270C1B1D0B6AE084E0C6DF3B
S11308A0C80164E670E056D2CB01CAE0D0E0BE01D4
S11308B051D2682F83E0BADFC801BE014BD2182F92
S11308C0CB01BE0147D2682F82E0B0DF612F81E007
S11308D0ADDF23C0CE0168EE73E03CD2CB010AE069
S11308E010E0B80137D2682F84E0A0DFCE0164E6BF
S11308F070E030D2CB01B8012DD2682F83E096DFAF
S1130900CE01B80127D2C82FCB01B80123D2682F5A
S113091082E08CDF6C2F81E089DFDF91CF911F9122
S11309200F91089580913B0190913C0144969093DE
S11309303C0180933B0193CF089510923C011092A7
S11309403B0180E090E08BCF089508950F931F93AF
S1130950CF938CE0C4D100E010E082E0C0D181E00C
S1130960BED10115110571F48FE091E0AAD188EA96
S1130970B6D186E191E0A5D188EAB1D188E191E0D0
S1130980A0D121C00130110571F481E291E099D127
S113099088EAA5D186E191E094D188EAA0D18AE2DF
S11309A091E08FD110C00230110569F488E191E023
S11309B088D188EA94D186E191E083D188EA8FD105
S11309C081E391E07ED184EF91E0B3D1D5DBC82FF0
S11309D08430E1F384EF91E0ACD1C13079F118F0C7
S11309E0C33041F0BACF0115110509F4B6CF015057
S11309F01109B3CF10920E010115110539F488EED7
S1130A0093E09093400180933F0113C0013011059E
S1130A1039F484EF91E09093400180933F0109C041
S1130A200230110531F488EC90E0909340018093FA
S1130A303F0110923E0110923D0107C002301105A2
S1130A4009F48BCF0F5F1F4F88CFCF911F910F9168
S1130A50089580913D0190913E018130910521F4EA
S1130A60A2DB99DC4DC10895893B9B4084F083E06F
S1130A7080930E014BDD61DF1EDC8DDC64E070E0F1
S1130A8084E090E0E0DB10923E0110923D01089575
S1130A9080910C0190910D01892B59F029DB9091E3
S1130AA04101891731F010920D0110920C018093CD
S1130AB0410120913D0130913E0180913F0190918F
S1130AC040012817390779F510923E0110923D0133
S1130AD080914101813069F028F0823089F08330BF
S1130AE0B1F01BC016DE892BC1F482E080930E01A5
S1130AF014C020DE892B89F482E080930E010DC09E
S1130B002CDE892B51F482E080930E0106C039DE7D
S1130B10892B19F482E080930E0181E090E0909398
S1130B200D0180930C01089580913D0190913E0147
S1130B308C3B22E0920739F4DED083E090E041DB85
S1130B402ADCDCC00895883725E0920739F4D3D035
S1130B5082E090E036DB1FDCD1C00895843328E0C6
S1130B60920739F4C8D081E090E02BDB14DCC6C0D6
S1130B700895803F9A4089F4BED09DDB2BDC4FDC86
S1130B800ADCBCD081E080930E0110920D0110921A
S1130B900C0110923E0110923D01089580910E01C6
S1130BA0813031F038F0823039F0833039F007C0C9
S1130BB06FDF05C0B9DF03C04CDF01C0C7DE809121
S1130BC03D0190913E01019690933E0180933D0139
S1130BD008951F920F920FB60F9211240BB60F9225
S1130BE02F933F934F935F936F937F938F939F9331
S1130BF0AF93BF93EF93FF93D1DFFF91EF91BF9139
S1130C00AF919F918F917F916F915F914F913F91A0
S1130C102F910F900BBE0F900FBE0F901F90189541
S1130C2081E087BBC0DDE1DDA6DB84EF91E081D00C
S1130C308FE08ABB22D081DE64E070E084E090E043
S1130C4002DB87E083BD88E085BD87B7846887BF02
S1130C5085B5856085BD14BC7894FFCFAB9A8FECC5
S1130C6097E00197F1F700C00000AB988FEC97E094
S1130C700197F1F700C000000895CF938FEF84BB74
S1130C8015BAC0E2C5BBEADFC5BBE8DF80E885BBB7
S1130C90E5DF15BAE3DF80EF85BBE0DF15BADEDF01
S1130CA080E685BBDBDFCF910895CF93C82F85BB4A
S1130CB0AA9AD4DFC295C07FC5BBAA9ACFDFCF91D1
S1130CC00895CF93DF93EC018881882329F021963E
S1130CD0ECDF89918111FCCFDF91CF910895CF93FF
S1130CE0C82F85BBAA98BADFC295C07FC5BBAA9896
S1130CF0B5DFCF9108958FEF83B9089513B80895A0
S1130D00CF93CFEFC3B98CE291E013D013B884EF43
S1130D1091E00FD0C3B984EF91E00BD013B884EF06
S1130D2091E007D0C3B980ED97E003D013B8CF9119
S1130D300895181619066CF420E030E0EFECF7E0A3
S1130D403197F1F700C000002F5F3F4F82179307E0
S1130D50A9F7089597FB072E16F4009406D077FDA3
S1130D6008D00BD007FC05D03EF4909581959F4F99
S1130D700895709561957F4F0895AA1BBB1B51E19F
S1130D8007C0AA1FBB1FA617B70710F0A61BB70BF7
S1130D90881F991F5A95A9F780959095BC01CD019C
S1130DA008950F931F93CF93DF938230910510F42E
S1130DB082E090E0E0915A01F0915B0120E030E0A4
S1130DC0A0E0B0E0309719F1408151810281138194
S1130DD048175907C8F08417950769F4109731F03C
S1130DE012960C93129713961C9327C000935A01E2
S1130DF010935B0122C02115310519F042175307E6
S1130E0018F49A01BD01EF01DF01F801DBCF2115D0
S1130E103105F9F0281B390B2430310580F48A811F
S1130E209B816115710521F0FB019383828304C0CA
S1130E3090935B0180935A01FE01329644C0FE01F7
S1130E40E20FF31F81939193225031093983288350
S1130E503AC02091580130915901232B41F420913B
S1130E6002013091030130935901209358012091DC
S1130E700001309101012115310541F42DB73EB730
S1130E804091040150910501241B350BE091580158
S1130E90F0915901E217F307A0F42E1B3F0B28171A
S1130EA0390778F0AC014E5F5F4F2417350748F0DF
S1130EB04E0F5F1F509359014093580181939193B2
S1130EC002C0E0E0F0E0CF01DF91CF911F910F91DC
S1130ED00895CF93DF93009709F481C0FC01329702
S1130EE013821282A0915A01B0915B01109781F490
S1130EF020813181820F931F209158013091590133
S1130F002817390751F5F0935901E093580167C048
S1130F10ED0120E030E0CE17DF0740F44A815B8129
S1130F209E0141155105F1F0EA01F5CFD383C28347
S1130F3040815181840F951FC817D90759F48881BE
S1130F409981840F951F0296918380838A819B8166
S1130F50938382832115310529F4F0935B01E09397
S1130F605A013DC0E901FB83EA8349915991C40FB9
S1130F70D51FEC17FD0761F480819181840F951FC3
S1130F800296E90199838883828193819B838A8372
S1130F90E0E0F0E012968D919C911397009719F080
S1130FA0FD01DC01F7CF8D919C9111979D012E5F7E
S1130FB03F4F820F931F20915801309159012817F8
S1130FC0390769F4309729F410925B0110925A01A1
S1130FD002C013821282B0935901A0935801DF9189
S1130FE0CF9108958F929F92AF92BF92CF92DF924A
S1130FF0EF92FF92CF93DF93EC01688179818A812C
S11310009B81611571058105910521F464E279EDF7
S11310108BE597E02DE133EF41E050E038D0490112
S11310205A019B01AC01A7EAB1E44DD06B017C01EC
S1131030ACEEB4EFA501940152D0DC01CB018C0DD0
S11310409D1DAE1DBF1DB7FF03C00197A109B04888
S113105088839983AA83BB839F77DF91CF91FF9085
S1131060EF90DF90CF90BF90AF909F908F900895B6
S1131070B9CF86E091E0B6CFA0E0B0E0809306015E
S113108090930701A0930801B09309010895052ED8
S113109097FB16F400940FD057FD05D024D007FC1D
S11310A002D046F408C050954095309521953F4FA5
S11310B04F4F5F4F089590958095709561957F4F40
S11310C08F4F9F4F089531D0A59F900DB49F900DE1
S11310D0A49F800D911D11240895B7FFF4CFF3DF71
S11310E0821B930B0895A1E21A2EAA1BBB1BFD01C0
S11310F00DC0AA1FBB1FEE1FFF1FA217B307E407F3
S1131100F50720F0A21BB30BE40BF50B661F771F4A
S1131110881F991F1A9469F760957095809590952A
S11311209B01AC01BD01CF010895A29FB001B39F03
S1131130C001A39F700D811D1124911DB29F700DDC
S10F1140811D1124911D0895F894FFCF27
S113114C0000600120000100000004000100033EC7
S113115C204561737900200020204E6F726D616C04
S113116C003E204E6F726D616C00202048617264E9
S10B117C003E2048617264008A
S9030000FC
