S014000045696E646F706472616368742E737265633B
S113000045C0000060C000005EC000005CC000008D
S11300105AC0000058C0000056C0000054C0000080
S113002052C0000083C400004EC000004CC0000059
S11300304AC0000048C0000046C0000044C00000A0
S113004042C0000040C000003EC000003CC00000B0
S11300503AC0000038C0000036C0000034C00000C0
S113006032C0000030C000002EC000002CC00000D0
S11300702AC0000028C0000026C0000024C00000E0
S113008022C0000020C000001EC0000011241FBEBA
S1130090CFEFD0E1DEBFCDBF11E0A0E0B1E0E4E2FC
S11300A0FFE000E00BBF02C007900D92AE30B10735
S11300B0D9F721E0AEE0B1E001C01D92A533B2074B
S11300C0E1F704D52DC79CCFFC010FB6F8946091DD
S11300D031017091320180913301909134010FBE4E
S11300E0309721F0608371838283938308958FE036
S11300F08ABB89B3817851F080910E01813059F126
S113010010920E0189B3827851F50BC089B38278BD
S113011041F080910E01882311F181E080930E015A
S11301201EC089B3847849F080910E018330D9F0E0
S113013082E080930E0189B30AC089B3887839F0CC
S113014080910E01823019F083E080930E0180913A
S11301500E0190E0089589B38278F9F608C089B356
S1130160847831F7EACF89B3887871F7F0CF89B30F
S11301708478F1F6E2CFE1E2F1E0108286E6818351
S1130180828313829CE39483858383EC8683178222
S113019008958230910599F08330910519F0019703
S11301A051F51BC0E1E2F1E08EE78083818396E0A4
S11301B09283838384839583868387830895E1E28E
S11301C0F1E08EE78083818396E092838383848346
S11301D090E69583868387830895E1E2F1E088E1E0
S11301E0808398E3918398E79283838384838583D0
S11301F08EE7868387830895E82FF0E0EF5DFE4F56
S113020081E090E002C0880F991F6A95E2F790811F
S1130210892B80830895E9E2F1E0918380837383DD
S1130220628388E090E0A9D4FC019093200180933C
S11302301F018091290190912A01A0912B01B09175
S11302402C0180839183A283B38320910F01309189
S1130250100135832483178216822F5F3F4F30931A
S1130260100120930F010895E82FF0E0EF5DFE4F99
S113027081E090E002C0880F991F6A95E2F79081AF
S1130280892780830895E1E2F1E089E291E0119207
S1130290E817F907E1F708951092710080E280935E
S11302A07000089584EA80937400E4E7F0E08081AC
S11302B08823ECF708958093730084E88093740096
S11302C0E4E7F0E080818823ECF708950F931F930F
S11302D0CF93DF93C82FE6DF8C2FEDDF81E2EBDFD6
S11302E004E710E0D4E9F801D083DCDF8C2FE3DFEE
S11302F080EAE1DFF801D083D5DF8C2FDCDF81EEEB
S1130300DADFF801D083CEDF8C2FD5DF81E8D3DFAD
S1130310F801D083C7DF8C2FCEDF80E0CCDFD8E0BC
S1130320C5E5C0958C2F80FB879587F9C4DF80E0F5
S1130330C2DFD150B1F784E980937400DF91CF918B
S11303401F910F910895A8DF84EEC0DF1092200161
S113035010921F0187E191E0B7DECB0179D575D505
S113036074D573C508950F931F93CF93DF939ADFCA
S113037084EEA1DF80E09FDFC9E2D1E001E211E079
S11303808A9180FB879587F996DF80E094DFC01718
S1130390D107B1F784E980937400DF91CF911F9165
S11303A00F910895E0911F01F091200162818081F5
S11303B023DFD9CF0895E0911F01F09120013097F8
S11303C049F080E090E001960680F781E02D3097B7
S11303D0D1F7089580E090E0089580910A0190910A
S11303E00B01019690930B0180930A010895CF931A
S11303F0DF932BD52AD529D528D527D526D525D59C
S113040087709078992324F40197886F9F6F0196E1
S1130410EC011BD587709078992324F40197886F99
S11304209F6F0196BC01E0911F01F091200130976C
S113043059F1208131812C173D0709F5828193817F
S113044086179707D9F401D500D5FFD48770907823
S1130450992324F40197886F9F6F0196EC01F5D4DA
S113046087709078992324F40197886F9F6F019681
S1130470BC01E0911F01F091200101C0E901068057
S1130480F781E02D3097A9F6EBE1F1E0D183C08349
S1130490738362838C2FB0DE66DFDF91CF91089582
S11304A0E0911F01F0912001309791F0208131817A
S11304B02817390729F4228133812617370759F081
S11304C00680F781E02D309789F780E090E0089569
S11304D080E090E0089581E090E00895CF93DF9369
S11304E080911F0190912001009799F4D82FC92F72
S11304F0ED2FFC2F01C0F90126813781211531052B
S1130500D1F7CF01D2D380911F0190912001892B83
S113051079F384E090E090930B0180930A01DF91DA
S1130520CF9108956F927F928F929F92AF92BF92D4
S1130530CF92DF92EF92FF920F931F93CF93DF93AB
S11305406C015B0180911B0190911C018C159D0530
S113055051F480911D0190911E018617970719F49B
S11305603CDF45DFC5D1B501C6019ADF892B09F00F
S113057098C0D1D120DF20910A0130910B0182175C
S113058093075CF56A2D8C2D37DEC0911F01D09145
S1130590200101C0EC018E819F810097D9F788E08A
S11305A090E0EBD2FC01D182C082B382A28280911E
S11305B00F01909110019583848317821682FF8323
S11305C0EE8301969093100180930F01E9E2F1E02C
S11305D0D182C082B382A28273C06A2D8C2D0CDEBC
S11305E0E0901F01F0902001F70144815581E1144E
S11305F0F10459F481E090E063C02C813D8124171B
S1130600350744F44C01A90105C0E70180E090E0FE
S1130610812C912C01960E80DF81C02D209769F7E3
S113062044C08816990691F502C087017E01F8013D
S11306306281808119DEF301D182C082B382A282F9
S113064080910F019091100195838483F801268194
S11306503781F301378326830196909310018093A9
S11306600F01C80122D3892829F4709220016092D5
S11306701F0103C0F70177826682E9E2F1E0D182CB
S1130680C082B382A28281E090E01AC07801F701AF
S11306900681178101960115110519F681E090E094
S11306A00FC0F1DD80E090E00BC088E090E065D2FF
S11306B03C018114910409F4B8CF80E090E0E7CFC5
S11306C0DF91CF911F910F91FF90EF90DF90CF902A
S11306D0BF90AF909F908F907F906F900895E9E2C4
S11306E0F1E08081918162817381019710F487E048
S11306F090E018DF009719F036DE81E090E008956D
S1130700E9E2F1E080819181628173810196883010
S1130710910511F480E090E005DF009719F023DEE5
S113072081E090E00895E9E2F1E0808191816281C5
S113073073816F5F7F4F6830710511F460E070E082
S1130740F1DE009719F00FDE81E090E00895E9E210
S1130750F1E080819181628173816150710910F4AB
S113076067E070E0DFDE009719F0FDDD81E090E0E6
S113077008958FEF87BBBB98C09A82E58DB9089521
S11307808FB9779BFECF089598B321E030E002C083
S1130790220F331F8A95E2F72095292328BB089559
S11307A098B321E030E002C0220F331F8A95E2F7AC
S11307B0292B28BB089580E0E7DF89E0E1DF8FEF94
S11307C0DFDF80E0EDDF80E0DFDF8AE0D9DF8FE08C
S11307D0D7DF80E0E5DF80E0D7DF8BE0D1DF83E0A7
S11307E0CFDF80E0DDDF80E0CFDF8CE0C9DF81E0B8
S11307F0C7DF80E0D5CF0895CF93DF93D82FC62FDE
S113080080E0C2DF8D2FBCDF8C2FBADF80E0C8DF31
S1130810DF91CF910895CF93C1E060E08C2FECDF9E
S1130820CF5FC530D1F7CF9108950F931F93CF9326
S1130830DF93082F192FEFDFC02FD12FC03187E2AC
S1130840D80714F0CFE0D7E2DD2354F5C9318CEF9B
S1130850D80714F4C9E1DCEF8E01DD2324F400276A
S113086011270C1B1D0B6AE084E0C6DFC80164E697
S113087070E05CD1CB01CAE0D0E0BE0157D1682F53
S113088083E0BADFC801BE0151D1182FCB01BE01EC
S11308904DD1682F82E0B0DF612F81E0ADDF23C04E
S11308A0CE0168EE73E042D1CB010AE010E0B8015A
S11308B03DD1682F84E0A0DFCE0164E670E036D13C
S11308C0CB01B80133D1682F83E096DFCE01B801A4
S11308D02DD1C82FCB01B80129D1682F82E08CDF3C
S11308E06C2F81E089DFDF91CF911F910F910895E3
S11308F0809111019091120144969093120180937A
S1130900110193CF0895109212011092110180E009
S113091090E08BCF0895809111019091120102967D
S1130920909312018093110180CF08951F920F922A
S11309300FB60F9211240BB60F922F933F934F9340
S11309405F936F937F938F939F93AF93BF93EF9333
S1130950FF9380911401813031F008F44DC082304E
S113096009F47CC097C080910C0190910D01892BF2
S113097059F0BDDB90911301891731F010920D01EC
S113098010920C018093130180911501909116012E
S1130990883C910509F07EC0109216011092150151
S11309A080911301813069F028F0823089F083301E
S11309B0B1F01BC094DE892BC1F482E08093140152
S11309C014C09EDE892B89F482E0809314010DC04B
S11309D0AADE892B51F482E08093140106C0B7DEAD
S11309E0892B19F482E08093140181E090E09093C4
S11309F00D0180930C014EC0809115019091160158
S1130A008C3B22E0920729F483E090E0C2DBABDC6C
S1130A1041C0883725E0920729F482E090E0B9DBF1
S1130A20A2DC38C0843328E0920729F481E090E006
S1130A30B0DB99DC2FC0803F9A4061F524DCB2DC46
S1130A40D6DC91DC81E08093140110920D011092A8
S1130A500C0110921601109215011CC08091150111
S1130A60909116018130910519F485DB7CDC12C06C
S1130A70813A9F407CF01092140130DD44DF03DCA6
S1130A8072DC64E070E084E090E0C5DB1092160153
S1130A901092150180911501909116010196909381
S1130AA0160180931501FF91EF91BF91AF919F9132
S1130AB08F917F916F915F914F913F912F910F9003
S1130AC00BBE0F900FBE0F901F90189581E087BB4F
S1130AD050DE71DE84E08093130135DC84EF91E015
S1130AE014D08FE08ABB64E070E084E090E093DB94
S1130AF087E083BD88E085BD87B7846887BF85B5F7
S1130B00856085BD14BC7894FFCF181619066CF463
S1130B1020E030E0EFECF7E03197F1F700C000009F
S1130B202F5F3F4F82179307A9F7089597FB072E6E
S1130B3016F4009406D077FD08D00BD007FC05D03E
S1130B403EF4909581959F4F0895709561957F4FE0
S1130B500895AA1BBB1B51E107C0AA1FBB1FA61700
S1130B60B70710F0A61BB70B881F991F5A95A9F752
S1130B7080959095BC01CD0108950F931F93CF9359
S1130B80DF938230910510F482E090E0E0912F0130
S1130B90F091300120E030E0A0E0B0E0309719F1AE
S1130BA0408151810281138148175907C8F0841785
S1130BB0950769F4109731F012960C9312971396D7
S1130BC01C9327C000932F011093300122C02115DC
S1130BD0310519F04217530718F49A01BD01EF01CA
S1130BE0DF01F801DBCF21153105F9F0281B390BA2
S1130BF02430310580F48A819B816115710521F0CF
S1130C00FB019383828304C09093300180932F016E
S1130C10FE01329644C0FE01E20FF31F81939193CB
S1130C2022503109398328833AC020912D01309113
S1130C302E01232B41F420910201309103013093C2
S1130C402E0120932D0120910001309101012115E5
S1130C50310541F42DB73EB740910401509105018F
S1130C60241B350BE0912D01F0912E01E217F307BF
S1130C70A0F42E1B3F0B2817390778F0AC014E5F08
S1130C805F4F2417350748F04E0F5F1F50932E0116
S1130C9040932D018193919302C0E0E0F0E0CF01F5
S1130CA0DF91CF911F910F910895CF93DF93009718
S1130CB009F481C0FC01329713821282A0912F01A2
S1130CC0B0913001109781F420813181820F931FFC
S1130CD020912D0130912E012817390751F5F093F9
S1130CE02E01E0932D0167C0ED0120E030E0CE1726
S1130CF0DF0740F44A815B819E0141155105F1F003
S1130D00EA01F5CFD383C28340815181840F951FBB
S1130D10C817D90759F488819981840F951F0296C1
S1130D20918380838A819B819383828321153105FA
S1130D3029F4F0933001E0932F013DC0E901FB83D6
S1130D40EA8349915991C40FD51FEC17FD0761F44B
S1130D5080819181840F951F0296E901998388838C
S1130D60828193819B838A83E0E0F0E012968D91E7
S1130D709C911397009719F0FD01DC01F7CF8D9139
S1130D809C9111979D012E5F3F4F820F931F2091DD
S1130D902D0130912E012817390769F4309729F471
S1130DA01092300110922F0102C013821282B0936C
S1130DB02E01A0932D01DF91CF9108958F929F92E0
S1130DC0AF92BF92CF92DF92EF92FF92CF93DF93D5
S1130DD0EC01688179818A819B81611571058105A6
S1130DE0910521F464E279ED8BE597E02DE133EF91
S1130DF041E050E038D049015A019B01AC01A7EA17
S1130E00B1E44DD06B017C01ACEEB4EFA5019401CB
S1130E1052D0DC01CB018C0D9D1DAE1DBF1DB7FF53
S1130E2003C00197A109B04888839983AA83BB832F
S1130E309F77DF91CF91FF90EF90DF90CF90BF909D
S1130E40AF909F908F900895B9CF86E091E0B6CF90
S1130E50A0E0B0E08093060190930701A0930801FD
S1130E60B09309010895052E97FB16F400940FD052
S1130E7057FD05D024D007FC02D046F408C0509595
S1130E804095309521953F4F4F4F5F4F0895909572
S1130E908095709561957F4F8F4F9F4F089531D006
S1130EA0A59F900DB49F900DA49F800D911D1124BA
S1130EB00895B7FFF4CFF3DF821B930B0895A1E2EB
S1130EC01A2EAA1BBB1BFD010DC0AA1FBB1FEE1FC0
S1130ED0FF1FA217B307E407F50720F0A21BB30B0B
S1130EE0E40BF50B661F771F881F991F1A9469F787
S1130EF060957095809590959B01AC01BD01CF01E3
S1130F000895A29FB001B39FC001A39F700D811DDE
S1130F101124911DB29F700D811D1124911D0895FE
S1070F20F894FFCF6F
S1110F2400003501200001000000040001005F
S9030000FC
